:1010000000020020012000009D1F0000591F000069
:10101000AD1F0000BD1F0000CD1F0000000000003C
:101020000000000000000000000000003D1F000064
:10103000DD1F000000000000F11E0000ED1F000099
:101040007FDB0000ADEB00007FDB0000D923000058
:10105000F52300007FDB00007FDB00007FDB00006A
:101060007FDB0000E5DF0000EBDF00007FDB00003E
:101070007FDB00007FDB00007FDB00007FDB000008
:101080007FDB0000EDDC00007FDB00007FDB000089
:101090007FDB00007FDB00007FDB00007FDB0000E8
:1010A0007FDB00007FDB0000F1DF0000F7DF0000E6
:1010B0007FDB00007FDB000000000000000000007C
:1010C0007FDB00007FDB00007FDB000011240000DD
:1010D0007FDB00007FDB00007FDB00005DE50000C0
:1010E0007FDB00007FDB00007FDB000000000000F2
:1010F000000000007FDB0000000000002D24000045
:1011000000B50848A1B0082100F05EFB064812F0C7
:1011100017FF064812F014FF80226946002010F0E5
:1011200097F8F9E718030020D45A0100FB5A010090
:1011300070B5064E064CA41BA4080025AC4200D195
:1011400070BD56F8253098470135F7E76C820100ED
:101150009482010013B500200DF0EAF9014608B9A8
:1011600000F040F80A4C204611F0C6FB204610F073
:1011700047FB2046074910F0F3FD074B0748009452
:1011800001224FF4806111F0C3FB02B010BD00BF1B
:10119000880E002058070020195B0100580300202A
:1011A000704708B5032113200CF0ECFCBDE80840A3
:1011B00013200CF017BD000008B5EFF3058313F002
:1011C000FF0F08D1EFF310832BB9054812F0B8FEDA
:1011D00000F0F0FCFCE70249032000F03BF800BF00
:1011E0001F5B010008B57146024812F0F5FDFFF7DC
:1011F000E3FF00BF315B010008B5FFF799FF03482B
:1012000012F09EFEFFF77CFF002008BD3A5B010054
:101210001FB5EFF3108372B6074B029300230193BF
:10122000064B0093072204234FF4C061044800F0EA
:101230001BFD00F047FE00BF755B0100F9110000C7
:101240007810002008B50DF0CBFDBDE8084010F087
:10125000EBBA704708B50D4B1A680C467AB90122F3
:101260001A60FFF7F6FF2146094812F0B5FD0DF0B0
:10127000DFFD0A2012F0DEFD064812F061FEEFF3FA
:10128000108372B600F0AAFDFFF78BFF78160020DE
:101290007A5B0100965B010070B50D4600210446A3
:1012A00000F0A2FA0D4E70B9BFF35B8FE288BFF376
:1012B0005B8F338812B21BB29A4204D06DB9012100
:1012C000204600F091FA3388BFF35B8FE380BFF3D1
:1012D0005B8FA3880133A380012070BD801600209E
:1012E0000021FFF7D9BF000008B50F4BBFF35B8F9C
:1012F000C188BFF35B8F1B8809B21BB2994201D032
:10130000FFF770FF8388002BFAD0013B9BB28380EC
:1013100043B9BFF35B8FC380BFF35B8FBDE8084069
:1013200000F09ABA08BD00BF801600202DE9F743EF
:1013300004460E461746EFF3108872B60568C5B925
:10134000DFF88C90051DD4E90331A2689A1A8A420D
:1013500022DC1E4A12883280581C6269E0600B4011
:1013600096E8030002EBC30383E8030088F31088C8
:1013700010E055F80C390360D1E900012B6983E8CE
:10138000030028460C2100F005FB687988F31088DB
:1013900000F03EFB012715E097B1D9F8000001905D
:1013A000092100F0F7FA01980146284600F03EFCBA
:1013B00088F3108800F01AFCEFF3108872B6C2E7C9
:1013C00088F31088384603B0BDE8F083801600200B
:1013D0008416002070B50B4604461046EFF31086C5
:1013E00072B6D4E902128A4219D0481CA060206962
:1013F0006269014002EBC10103C983E8030065682B
:101400000DB355F80C39636028460C2100F0C2FA80
:10141000687986F3108800F0FBFA012012E078B1B9
:101420000A4A156809212B61284600F0B3FA2946BB
:10143000204600F0FBFB86F3108800F0D7FBECE7BA
:1014400086F3108870BD86F31088E6E784160020C6
:10145000F8B50446EFF3108672B6344F3A68506A16
:1014600000285CD0D2E90630984258D0581C9061D0
:10147000106A034039B9516929B9591C03D186F35F
:1014800010881846F8BD002B4DDB516A01EBC301F3
:1014900003C984E8030055696DB355F80C1951610F
:1014A000002B0DDBD2E907349169506A591A8C423E
:1014B000A9BF591C4FF0FF332340D16100EBC30497
:1014C0002B6993E8030084E803002B79062B04D1F1
:1014D00086F3108821E0FFF785FE002328462B6164
:1014E0000C2100F057FA687986F310880E2814D87A
:1014F00000F08EFA11E0002BEADA0421104600F029
:1015000049FA86F310880A4B4FF080525A60BFF3B5
:101510006F8F3B681B79042BDDD00123B1E74FF0BF
:10152000FF330029A7D01461B5E700BF841600205F
:1015300000ED00E00346D0E9072010B59C69141BBC
:10154000A04201DA002010BD541C0240DC61F9D435
:10155000586A00EBC20203C982E803001A896FEAE5
:1015600042426FEA52421A81184600F0BBFA01204B
:10157000E9E7000008B50E4B53F82130A3B11A7902
:10158000042A0BD103C81A6982E8030018460C210B
:1015900000F000FA074B0120186008BD014618460C
:1015A000BDE80840FFF7C6BF4FF0FF30F5E700BFCA
:1015B000D0160020881600202DE9F0411D46294B49
:1015C00053F82140284B1B880380064690462CB9CF
:1015D00085F310884FF0FF30BDE8F0812379042BAC
:1015E00036D0224B014620461F68FFF7A3FF78B193
:1015F00085F310883B79062B02D01D4B1B682BB15D
:101600001C4B4FF080525A60BFF36F8F0120E3E70D
:10161000B8F1000F02D185F31088DDE73B793E6118
:10162000062B0CBF06210521384600F0B3F904F162
:101630001400394600F0FAFA23896FEA43436FEA4F
:1016400053432381204600F04DFA85F31088D7E7F5
:10165000D0E90001236983E803000C21204600F053
:1016600099F9F2E7D0160020801600208416002099
:101670008816002000ED00E010B50146EFF310845D
:1016800072B6054B1B880380044B1868FFF752FFA6
:1016900084F3108810BD00BF80160020841600203F
:1016A00021230380FFF766BFEFF3058313F0FF0FDD
:1016B00001D0FFF7F5BF064B1B881BB2994201D141
:1016C000FFF7DABFEFF3108372B60122FFF774BFA2
:1016D0008016002010B4EFF3058212F0FF0203D051
:1016E0005DF8044BFFF7DCBF074B1B881BB2994228
:1016F00003D15DF8044BFFF7BFBFEFF3108372B661
:101700005DF8044BFFF758BF80160020114B1B8873
:101710001BB29A42F7B506460C46154601D1FFF7B3
:1017200061FDEFF31083019372B60B4A176806212F
:10173000384600F02FF996E80300019B3C61012236
:1017400084E803002946204603B0BDE8F040FFF7D7
:1017500033BF00BF801600208416002038B5EFF399
:10176000108572B60F4BB0F9002053F822400CB927
:10177000FFF738FD2379062B04D085F310884FF04E
:10178000FF3038BD03C9236983E8030020460C21DC
:1017900000F000F9607985F3108800F039F9012034
:1017A000EFE700BFD01600200021FFF751BE012156
:1017B000FFF74EBE034B1B68586A10B1D3E90630E1
:1017C000C01A70478416002008B5064B4A1E1B68D5
:1017D0001140586201D0FFF705FDC3E906111A62F6
:1017E00008BD00BF84160020F8B504460D46EFF38F
:1017F000108772B603683BB94FF0FF33036087F37D
:10180000108801252846F8BD11B987F31088F9E73B
:101810000F4B1E680EB9FFF7E5FC0321304600F0C0
:10182000B9F8236801330DD106F10C0323600023BE
:10183000F36087F31088074B4FF080525A60BFF374
:101840006F8FDFE73146204600F0F0F9F1E700BF87
:101850008416002000ED00E038B50446EFF3108553
:1018600072B6006810B985F3108838BD431C02D1E8
:1018700000232360F7E750F80C3923600C2100F0B7
:1018800089F8236813B94FF0FF33236085F310887C
:10189000034B4FF080525A60BFF36F8FE5E700BFF4
:1018A00000ED00E0026810B592B113688B4208D1D8
:1018B0008A4202D10023036001E00B6813600846EE
:1018C00010BD13461B681C68A14203D09A42F9D18F
:1018D0000021F4E72BB10A681A6002688A42EED14F
:1018E000E9E71946EBE7000008B503790B2B04BFC5
:1018F0000C230371836A1A68934208D0B0F906106A
:10190000034812F069FA03490D20FFF7A3FC08BD54
:10191000A35B0100D25B010070B5184C184D236821
:101920002E6843BB16B13046FFF7DEFF00F00EFB1A
:101930002368002BFAD00020124B00221A60236883
:10194000114AB3FA83F352F823301C680C3C0B2382
:10195000B44223710DD008B1FFF7C6FF0B4BA16A4B
:10196000B4F906201A801F31094A2C60022000F0C9
:1019700029FA204670BD3046DEE700BF7C16002005
:101980008416002088160020901600208016002063
:1019900008000616F8B50A29037904460D461AD937
:1019A0000A2B14D84779184A52F8276039460C3068
:1019B0007EB13368E36052F82730186042F82100A6
:1019C000124A4FF000431168FB400B43136025712E
:1019D000F8BDE060F2E70A2BF9D90B4E407904F12B
:1019E0000C0106EB8000FFF75DFF627956F82230AC
:1019F000002BECD105494FF0004323FA02F20B68AB
:101A000023EA02030B60E2E7901600207C16002018
:101A10000B4B1B681A790A2A02D95B7983420ED9CB
:101A2000EFF3058313F0FF0F03D0064B01221A607A
:101A30007047054B4FF080525A60BFF36F8F70476D
:101A4000841600208816002000ED00E008B5EFF3B2
:101A5000108372B6094B0A4A1B880A4D1BB2002438
:101A600042F82340084A286813682146013B136066
:101A7000FFF790FF2C6000F025FA00BF80160020D1
:101A8000D0160020841600208C1600200C4B10B5B8
:101A90001B68EFF3108472B61A8910420DD11861D9
:101AA00007211846FFF776FF84F31088054B4FF0A7
:101AB00080525A60BFF36F8F10BD84F31088FBE72C
:101AC0008416002000ED00E010B50346EFF310840B
:101AD00072B6028802EA010022EA0101198084F349
:101AE000108810BD10B50379048A072B04D0082B89
:101AF0000DD00024204610BD03891C40002CF9D0D5
:101B00000C21FFF747FF054B01221A60F2E703891A
:101B100034EA03030CBF01240024EFE788160020F9
:101B200013B5064B01901C68FFF7B0FF019904F153
:101B3000080002B0BDE81040FFF7C6BF84160020C1
:101B400010B5EFF3108472B6038902791943072A9E
:101B5000038A018104D0082A14D084F3108810E08D
:101B600019400029F9D00C21FFF714FF084B01227E
:101B70001A6084F31088074B4FF080525A60BFF30D
:101B80006F8F10BD8B430CBF01210021E9E700BF1F
:101B90008816002000ED00E0431E9BB21F2B05D8E5
:101BA000034B53F8200010B1C06A70470020704703
:101BB000D016002010B5EFF3058313F0FF0F0FD1FF
:101BC000EFF3108472B6074B02211868FFF7E2FEAC
:101BD00084F31088044B4FF080525A60BFF36F8F2C
:101BE00010BD00BF8416002000ED00E0EFF3108070
:101BF00072B60B4B1B681A790A2A07D95A79094B16
:101C000053F8221011B1096843F8221080F31088AC
:101C1000054B4FF080525A60BFF36F8F704700BF83
:101C2000841600209016002000ED00E038B50B79F6
:101C30000A2B01D9FFF7D6FA4C7901F10C020346C1
:101C4000006818B110F8075CA542F8D9C8601A609E
:101C500038BD03460144814201D8C01A704702686A
:101C60008242FAD10430F6E70F2A2DE9F84F0546F3
:101C700089461746984633D810F003031DBFC3F1B9
:101C80000402043B5B180B46A3F1340318BFAD18E4
:101C900023F0030318F0080F05EB030417D02D60A1
:101CA000EFF3108B72B62849012251F822600FFA27
:101CB00082FAC6B10132212AF7D18BF310886FF076
:101CC0008A0A3DE012600432A242FBD3E8E72A46CA
:101CD000FAE702212046FFF75DFE8BF310882FE024
:101CE0006FF0150A2CE041F822402A46DDE90A018E
:101CF000A4F806A000F098F80C9B144AE3624FF099
:101D0000FF33C4E9083613682060013318F0010F6F
:101D1000C4E90366C4E90566A562C4F8309067713A
:101D20002671E6611360D4D10C212046FFF732FE04
:101D300018F0040FD1D18BF310883846FFF768FEF6
:101D40005046BDE8F88F00BFD01600208C1600204A
:101D500008B5034B53F8200008B9FFF743FA08BD54
:101D60004C5C01000C4B0D4A10B540219A600C4CA4
:101D7000E02283F82220D9770022A0180132302AED
:101D800080F80013F9D11A6942F010021A615A69F9
:101D900042F400725A6110BD00ED00E00010000036
:101DA00000E100E0064A536843F00503536052F82F
:101DB0006C3C43F4803342F86C3C0020704700BF19
:101DC00090ED00E0044B21F01F0142F00102986009
:101DD000D96000201A61704790ED00E008B5EFF37C
:101DE0000581C1F3080119B10448103911F0F4FF5D
:101DF000034B1B68DB0700D500BE08BD805C0100FB
:101E0000F0ED00E0BFF34F8F0549064BCA6802F4BE
:101E1000E0621343CB60BFF34F8F00BFFDE700BF0D
:101E200000ED00E00400FA05134423F003034FF033
:101E3000773210B543F8042C5A0758BF4FF0883258
:101E4000A3F104045CBF43F8082CA3F108044FF08D
:101E5000807344E902030D4B44F80C3C0022032339
:101E600044E9053202200123224644E907306FF09D
:101E7000020344F8201C42F8243D0B2342F8043DA1
:101E8000013B032BFAD1A4F1440010BD4D1A000010
:101E90000548064A064B0168914201D0181A70475E
:101EA0009842FBD20430F6E700000020FEE7FEE790
:101EB00000020020EFF308807047000000487047E0
:101EC000000000200023E1EE103AEFF3148323F02A
:101ED000040383F31488BFF36F8FEFF3108362B6AC
:101EE000024B4FF080525A60BFF36F8F00ED00E05D
:101EF000114910B50C6872B6FFF70EFD62B6A0422C
:101F000008BF10BD2146BDE8104049B1EFF309827A
:101F10001EF0100F08BF22ED108A22E9F04F0A6070
:101F20000068B0E8F04F1EF0100F08BFB0EC108A48
:101F300080F309887047000084160020024B4FF0A0
:101F400080525A60704700BF00ED00E030BF62B6BB
:101F5000BFF36F8F72B670470D4B0E4A0E4968463D
:101F6000904203D8984201D9002102E009468D46EB
:101F7000012104207246024202D1EFF3088001E001
:101F8000EFF309802DE9F00F6B4600F087F800BFF2
:101F900058010020000004200002002008B502497A
:101FA0000620FFF757F900BF8F5C010008B5024912
:101FB0000520FFF74FF900BF9B5C010008B50249FF
:101FC0000820FFF747F900BFAE5C010008B50249E1
:101FD0000920FFF73FF900BFC05C010008B50249C6
:101FE0000A20FFF737F900BFD45C010008B50249A9
:101FF0000B20FFF72FF900BFE65C01007047704728
:102000001C4AD2F8883043F4700310B5C2F8883007
:10201000FFF7F4FF6A46184B1848194693421DD340
:10202000174B184A184883421BD3184B184A0020F4
:1020300093421BD321B1174A17490120FFF7C2FE73
:10204000FFF7B0FEFFF7DBFF00F080F9FFF7A8F81D
:1020500011F04AFCBDE81040FFF7DAB843F8040B72
:10206000DCE752F8044B43F8044BDCE743F8040B7D
:10207000DEE700BF00ED00E000000020FEE7FEE725
:102080000002002008830100140300201803002030
:1020900098610020080006161F0000202DE9F04F6F
:1020A0002DED068B89B0904604935C4B9A6B08EE3D
:1020B000102A5A6BD3F828A008EE902ADA6A09EEA3
:1020C000102A1A6BDB6B0AEE103A554B09EE902A78
:1020D0001A68544B9A420446894602D0524811F07D
:1020E0002FFFB9F1000F6BD0504811F029FF504B72
:1020F0005048198809B211F06FFE00252E464E484F
:1021000011F01EFF51464D4811F066FE19EE101AEF
:102110004B4811F061FE19EE901A4A4811F05CFE2E
:102120001AEE101A484811F057FE1AF4004F04D066
:1021300018EE101A454811F04FFE1AF0800F04D027
:1021400018EE901A424811F047FE424811F0F8FE8E
:102150004148414611F040FEB9F1000F2CD118F072
:10216000080F55D0324B198809B208460391FFF782
:1021700013FD03990246394811F02EFE384811F03C
:10218000DFFE3146374811F027FE6946364BC91A43
:1021900003D53648494211F01FFE049B1E462046D7
:1021A0008268C36801698C4641698E46AD463146F6
:1021B00091E8F00F416800682D490720FFF74AF8C1
:1021C000D4E90230D4E90012E7690390206905914F
:1021D000D4E905B60AEE900AB8052648CDE90623EB
:1021E00054BF04F1200504F1240511F0A9FE039B5E
:1021F000059900932048DDE9062311F0EDFD1AEE64
:10220000901A009733465A461C4811F0E5FD76E7D0
:10221000217F1B48103911F0DFFDAFE700ED00E032
:1022200000000020FEE7FEE7F45C01000A5D01000B
:1022300080160020395D0100E35D0100EC5D0100C6
:10224000FC5D01000C5E01001C5E01002C5E0100C3
:102250003C5E01004C5E0100515E0100635E0100C6
:10226000A25E0100D35E010058010020FB5E010068
:10227000285F01004D5D0100685D0100A55D010062
:102280007C5E010070470000EFF3108172B6094BCD
:102290001A680132012A1A6009D14FF080430020E8
:1022A000C3F800011A60D3F80021002AFBD081F3A3
:1022B0001088704754170020094A08B513680BB9F5
:1022C000FEF790FFEFF3108172B61368013B1360C5
:1022D0001BB94FF0804301225A6081F3108808BD7A
:1022E00054170020084A107868B94FF08043012144
:1022F000C3F81815C3F804019960D3F80411002934
:10230000FBD0012313707047581700200C4B1B782B
:10231000062B12D10B4B186810F00F000DD10433AF
:102320001B6803F0F003302B08D1074B1B6813F038
:10233000F00F0CBF0120002070470020704700BF45
:10234000E00F00F0E40F00F0EC0F00F010B5FFF725
:10235000DDFF20B1164AD36823F08073D360FFF706
:10236000D5FF10B1134B03221A60FFF7CFFF30B136
:102370004FF080430022C3F80C21C3F810214FF026
:1023800080430124C3F87845D3F84026A24208BF11
:10239000C3F88045FFF776FF074BC3F84045FFF7CA
:1023A000E1FCFEF74FFFBDE810400CF038BD00BF68
:1023B000F0ED00E0A005004000E00140044B1B6888
:1023C0002BB1044B4FF080525A60BFF36F8F7047B0
:1023D0008816002000ED00E008B5044A044B1068A0
:1023E0001B689847BDE80840FFF7E8BF6C1700205E
:1023F0005C17002008B5044A044B50685B68984796
:10240000BDE80840FFF7DABF6C1700205C1700201A
:1024100008B5044A044B90689B689847BDE808409B
:10242000FFF7CCBF6C1700205C17002008B5044AEA
:10243000044BD068DB689847BDE80840FFF7BEBF93
:102440006C1700205C17002008B5C82100200CF094
:1024500091FD643808BD70B505460C46FFF7F4FFE2
:102460004FF47A7605FB00F3744393FBF6F303EB2A
:102470004500844205D2FFF7E7FF604390FBF6F08A
:10248000204470BD08B5084943880A785BBA9BB2FE
:10249000934207D10549043011F04AFAB0FA80F0AE
:1024A000400908BD0020FCE7000200207D18002044
:1024B00038B50B4615460649064A096812680446AF
:1024C00000F08AFD29462046BDE8384000F08EBD68
:1024D000A88001008C18002038B50B461546064927
:1024E000064A09681268044600F076FD294620462F
:1024F000BDE8384000F07ABDA48001008C180020AF
:102500004269013201D010F066BC83685B681847ED
:1025100008B5144800F074FD134800F071FD13482D
:1025200000F06EFD124B1B78012B03D0022B0DD057
:10253000ABB908BD4FF47A7100200CF01BFD0D49BA
:1025400002460848BDE80840FFF7C6BF4FF47A715D
:1025500000200CF00FFD084902460448F2E7FEF7A0
:1025600041FE00BF081C0020C81800209018002061
:102570007C180020580200202802002073B5084E65
:10258000084D0024CDE9004400234FF48072314609
:10259000284609F086FD0028F4DA02B070BD00BFBD
:1025A000E41800206C1B0020094B10B51868094C7A
:1025B000FFF7A6FF23681844074B1860074800F090
:1025C0001FFD226806490548BDE81040FFF770BFAF
:1025D000A8800100241C0020C4180020C818002076
:1025E0002002002008B5084B1868FFF789FF0A236E
:1025F000B0FBF3F0054B1A68131AB3F5803F28BF00
:10260000831A98B208BD00BFA48001002C1C0020D2
:102610004FF4006310B503804FF400734380044609
:10262000FFF7E0FF40BAA080062010BD2DE9F04181
:10263000424C207006460CF079FC414A414B20F098
:102640007F401060020C6270020AA270E07018688D
:10265000FFF756FF0A23B0FBF3F03B4B3B491860F2
:102660003B4B1D784FF48072A2806ABAE28004F17D
:1026700008002A4611F08CF940F64203F340DB07CC
:1026800005F108050ED4334991F8857060194FF4AF
:10269000007363537BBA43803A46043011F078F9F3
:1026A00004373D444FF4C0620B2E625304EB050324
:1026B00036D15A804FF4A4429A804FF40052DA8007
:1026C0004FF4A6421A810A35234B1E682C44C5F5E7
:1026D00080787EB31F7D5FB31D22002104F11000BE
:1026E00011F058FA4FF4D05323824FF4C853638249
:1026F000277729224FF4C85336BA2380666053BA2D
:10270000161D6380B0454FF0000323726372A372FD
:10271000E37223736373A373E3730BD2FEF762FD5B
:102720004FF400725A804FF4A4429A800635CBE7EA
:102730000C22DFE7A819BDE8F08100BFE4190020F2
:10274000281C0020A48001002C1C00207D180020E3
:1027500000020020E41A0020AC18002003292DE913
:10276000F8438946174603D84FF0FF30BDE8F88399
:1027700082784378120242EA0342C3781A432E4B0E
:102780001B689A42F0D10022031D0439144690467A
:10279000104679BB0028E7D0B8F1000FE4D012B1A1
:1027A0009388002BE0D1FFF76DFE0028DCD004B148
:1027B0002479224D95F885301BB195F88430A342D9
:1027C00016D21F4B1F494A46184611F0E1F807B1CF
:1027D0003860B8F8022052BAD2B2802A85F8852033
:1027E000C2D8164808F1040111F0D2F885F88440E7
:1027F0002046BBE74945B7D81E885D8876BAB6B291
:102800006DBA072EADB210D008D8012E11D0022E0D
:1028100008BF98460435491B2B44BAE70D2EF9D161
:102820002A1D052AA0D91A46F4E7002D9CD01C4683
:10283000F0E71846EEE700BF281C0020E41A00204D
:102840007C170020E41800202DE9F04F89B0002506
:102850000495FFF7F9FD80EAE074A4EBE0744FF40F
:102860007A704443B4FBF0F404440120FFF7DEFE29
:10287000694F07EB000906464846FFF7C9FE0644C4
:10288000FFF77CFE654A664807962B4605A9CDE909
:10289000055709F038FCA842039766DCFEF7A2FC56
:1028A000022B34D1FFF79EFE0A2303FB104404AA37
:1028B00059464046FFF752FF049B002B18BF5D4668
:1028C000FF2802D0574B9C4239D9049B13B9CDF84D
:1028D00010805D46002D17DD049C0022294620460D
:1028E000FFF73CFF002846DAFFF7AEFD80EAE07212
:1028F000A2EBE0724FF47A7042434B49B2FBF0F224
:1029000002444A48FFF7E8FD09B0BDE8F08F049F94
:10291000002FDAD14FF461612046FFF79CFD044699
:102920004846FFF775FE039B3C4A0597CDE90636FE
:1029300005A93B46504609F0E6FB0028AEDD002322
:10294000CDE900334FF47A73394963434FF4807211
:10295000504609F0A6FBB0F1000BD8DD98F8003026
:10296000002F9DD1022BD2D1AFE7DFF8C480DFF872
:10297000B0A00127E3E72F4B2F491868DFF8C48088
:102980002E4E2F4F00F0D7FA04342288638852BAB3
:1029900092B25BBA9BB2192A03F1040106D0522A03
:1029A00037D0032A24D10F2922D8ADE70F29ABD97C
:1029B0006268D8F8001012BA8A42A3F10C0317D14A
:1029C00004F110001946D9B9A3681ABA83B1E168B5
:1029D0000BBA69B1D6F880108A4209D239688B42A5
:1029E00006D23B600133C6F8802001D0FFF7DCFD42
:1029F00063885BBA9BB20433ED1A1C44C5D183E7EC
:102A00008B4281D3428852BA92B20432891A10445E
:102A1000D9E70729C8E700BFE419002030020020E9
:102A20006C1B002080EE360058020020081C00209D
:102A3000E41800208C18002050020020E41A002026
:102A4000241C0020AC1800202DE9F04FC31E8DB0CF
:102A50000746082B00F2DD80DFE813F0D801DB0029
:102A600009001500DB00DB00DB00DB007E01A94B69
:102A70001D68A94B1868FFF743FD2D1A00264FF477
:102A800016790A24C7E1A5490A7D31F8040B00F044
:102A900099FC05460028F1D1A149B2E1B5B920461B
:102AA00049460792FFF7D7FC079A044606BB5046F3
:102AB000FFF7AEFD059A0A92039A0B920023994AFA
:102AC000099309A9584609F01EFB82E10792FFF716
:102AD00089FD069B079A9842E1D9002A04DD98F8FF
:102AE0000030072B00F08981062F40F09280D3E759
:102AF000049B0133D9B2B1420491D8D3EDE798F8E1
:102B0000023098F801101B0243EA014398F80310C1
:102B10000B43854909688B4240F072810024A2F181
:102B20000408824BC446A146264625462046BCF1F1
:102B3000000F3BD1002800F06381002D00F0608180
:102B4000FFF7A0FC002800F05B81794B1B78022B7B
:102B50000ED06B8877495BBA91F885209BB293427F
:102B600040F04E81281D10F0E3FE002840F048811F
:102B7000B9F1000F04D0D9F804306F4A1BBA1360C2
:102B80000B2F0BD1A4B3626812BAB2F5167F38BF0F
:102B90004FF4167269496A48FFF78AFC1EB1B38880
:102BA000002B40F02D81614D5C4F2FE06245C0F05D
:102BB0002781198849BA89B20D2913D00CD8012967
:102BC00012D0022908BF1D46598849BA89B204317A
:102BD000ACEB010C0B44AAE7202907D0532908BF0E
:102BE0009946F1E71E46EFE71846EDE71C46EBE78E
:102BF000544ACFE72B88B3F5C85F00F088806B8814
:102C00005BBA9BB20433A8EB03081D44B8F1000F74
:102C1000F0D10DB0BDE8F08F6B683A681BBA9342F3
:102C2000EDD1A9F10C0905F110064A465446002AD7
:102C30004BD1AA6813BA0AB3E9680ABAF1B1DFF84E
:102C4000F490D9F8801009B18B4217D83E4E316804
:102C500009B18A4212D8C9F880300133326008D0F5
:102C60003A4800F0CDF9D9F8802039493748FFF7C4
:102C70001FFC3368013301D0FFF796FC002CBED057
:102C8000227BD4F8089066683A754FF0010A87F8FD
:102C900015A004F10D0158460AF018F9237B53B131
:102CA00036BA00963A7D2B49388899FA89F300F0B4
:102CB0006DFBDFF8A0B0B5F8029099FA99F91FFA08
:102CC00089F9BAF1000FA7D099E79145C0F0988033
:102CD0003388B3F5D05F11D17B7DB3B1ACB1317B1B
:102CE0003B7D99420AD1594606F10D0003920AF044
:102CF000CDF83B7D039A834298BF344673885BBA14
:102D00009BB20433D21A1E4491E73446F6E74FF0E3
:102D1000000ACEE7C4180020A8800100AC180020EB
:102D20005802002030020020281C0020E818002053
:102D30007C180020E41A0020040200202802002051
:102D40009018002080510100241C0020081C002045
:102D500048020020B0180020344B1C88FFF774FB99
:102D60004FF47A756C43002660434FF05309B0FB73
:102D7000F5F0354604443846FFF758FCDFF8C0B09C
:102D80000BEB000A80465046FFF742FC08EB0003BD
:102D90000393DFF8B080FFF7F1FB254ACDF814B0BC
:102DA0004FF0000B059B0A93039B0B9309A900238B
:102DB0004046CDF824B009F0A6F900281C4AF1DD00
:102DC00064236B430693DFF86C80DFF878B0002350
:102DD00004930023CDE900334FF47A734FF48072EB
:102DE00014496343584609F05CF9021E7FF756AE5A
:102DF00098F80030072B7FF451AE032A3FF77FAEDF
:102E00000D490E4B186800F096F802E700250A26D7
:102E10004FF01E090124FFF717FB4FF47A7808FBE7
:102E200004F46043B0FBF8F00444A4E7040200207B
:102E300030020020E4180020500200208C180020EE
:102E4000E41900206C1B00200620FFF7FDBD0520C3
:102E5000FFF7FABD0320FFF7F7BD0B20FFF7F4BD26
:102E600008B543680BB9FEF7BDF9034B1860034B77
:102E70009982034B998208BD8C180020080200201B
:102E800030020020034B1A78824202D01870FFF7FC
:102E90003FBB70477C180020014B1878704700BF7B
:102EA0007C18002010B50C4C0C49A08A00F01CFACC
:102EB0000B4BC0B218700B4B1B680BB9FEF792F9A5
:102EC00048B10023214608481A4608F0F9FFBDE83A
:102ED0001040FFF71DBB10BD080200207D18002028
:102EE000000200208C1800206C1B0020802908B5EF
:102EF00007D9FEF777F91080192050801175184610
:102F000008BD034A1368002BF5D06FF00B00F7E7FC
:102F1000AC1800200AF094BA0AF0A8BA0368024676
:102F20003BB11868834219BF02681A60002313601E
:102F300070471846704708B500B109B9FEF752F955
:102F40004B68002BFAD0EFF3108272B60B6833B9DE
:102F500003686BB11B680B6003681960016040680F
:102F600082F3108830B1BDE808400121FEF7E8BDCA
:102F70000960F3E708BD08B5EFF3108172B6FFF7FB
:102F8000CDFF81F3108808B10023036008BDF8B5B8
:102F90000D46044600B109B9FEF724F9EFF3108796
:102FA00072B6002621464B68002BF5D00846FFF785
:102FB000B5FF083110B90136B542F4D187F3108856
:102FC00018B90120FEF7ACFDE8E700230360F8BD67
:102FD000D0E90501FFF7AFBF01600349C0E9052350
:102FE000C0E90310704700BFD12F00000A4619B98D
:102FF000D0E90501FFF79FBF011D00680FF042BF38
:103000000146006810B104310FF022BF7047000084
:1030100038B58569044685B10A4B186843690133A0
:103020000CD00FF0D8FE23696A68C11A8A4226BF05
:103030009B181B1A00236B60206138BD83685B6896
:103040009847F0E7A48001008369084A10B5044658
:1030500010682BB15A6821460FF014FF206110BD93
:103060002146BDE810400FF0F3BE00BFA480010070
:103070008369002210B504465A60A06930B14368E4
:1030800023B90368A36163699847F6E72046BDE862
:103090001040FFF7D9BF000070B505460C46EFF3AE
:1030A000108672B6FFF7B4FF05F118031A68EAB983
:1030B00022601A681AB151686068091A51601C6070
:1030C000AB69A34206D10D4B6268186829460FF020
:1030D000D9FE286186F31088094B1B682BB1094B78
:1030E0004FF080525A60BFF36F8F70BD61685068B7
:1030F0008142DDD3091A61601346D7E7A48001003D
:103100008816002000ED00E070B504460D46EFF390
:10311000108672B6FFF77CFFA26904F118012AB984
:103120002046FFF791FF86F3108870BD9542136823
:1031300002D011461A46F2E70B60002BF0D05A6815
:1031400069680A445A60EBE7034B4161C0E9023009
:1031500000238361704700BF7130000058B10378CD
:1031600043B1013810F8013F0BB901207047303BE3
:10317000092BF7D90020704738B1054B0A0901F037
:103180000F019A5C5B5C027043700220704700BFC5
:103190003B5F0100F8B50D465700064610B18C188C
:1031A000A54201D13846F8BD304615F8011BFFF79E
:1031B000E3FF0644F4E700000E4B994230B517D800
:1031C0000A2301221C468B420FD960B183180A25BD
:1031D000B1FBF5F405FB1410303003F8010D08467F
:1031E00009282146F4D8104630BD63430132EAE78E
:1031F0000A22EAE7FFC99A3BFFF7DEBF90B1D9B1D7
:10320000002340EA0102D2070ED5C20710D5CA0733
:1032100010D581423EBF024608461146091AF6D132
:1032200000FA03F108467047400849080133E8E70F
:103230004008EAE74908EAE70146F3E72DE9F047E5
:1032400007460D4614460AB9FDF7CCFF114628463D
:10325000FFF7D4FFA042F7D8A84241D8B4FBF0F260
:10326000B5FBF0F04FF00048B0FA80FE0021CEF13F
:10327000200C28FA0EF80E46002400250023CEF17B
:103280005F0E14EB040A45EB050910EA080F5446DB
:103290004D461EBF4AF0010A4D4654469D4208BFA6
:1032A00094424FEA46064FEA580811D3A41A65EB38
:1032B000030546F00106002E0EDA54EA050300D09D
:1032C0000136CCF1200C3E6087F804C0BDE8F087E1
:1032D000002EF0D10CF1FF3C01317145D1D3ECE768
:1032E0004FF0000C6646ECE773B50E464FF44073A2
:1032F00026F8043B0D4628B905F07EF9044628B9A6
:10330000FDF770FF00B205F086F9F7E708234FF4E8
:103310000171B0F9B2010022CDE900313346032139
:1033200004F062FD021E03DD4FF4D8536B800FE002
:1033300094F8B131033B082B1ED8DFE803F00C1DD5
:103340000C1D1D1D1D050C004FF4A0536B800022A9
:10335000D0B2043016E008234FF40172B4F9B20180
:103360000221CDE900320022334604F03DFD021E69
:1033700002DD4FF48073D9E7B4F9B211024810F0BE
:103380002BFD002002B070BD4B5F01007FB500B285
:10339000089E03911446029305F03DF9029B0399A0
:1033A0000096E2B2054605F05BFE002808DB802CA3
:1033B00006D00121284604B0BDE8704003F088BA69
:1033C00004B070BD2DE9F04389B000230093194B80
:1033D00006461868436901330F4690460FD00FF038
:1033E000FAFC054600244FF47A7901AA6946304672
:1033F00003F07AFE38B9204609B0BDE8F08383684F
:103400005B689847EDE79DF814304345EDD1069B86
:103410005B1BB3FBF9F3A342E7D9394601A809F0D6
:1034200035FD9DF8143083429EBF069C641BB4FB9F
:10343000F9F4DAE7A480010010B50024204605F075
:10344000DBF8044640B105F0C9F80028F6D1B4F91C
:10345000B211024810F0C0FC204610BD9B5F010075
:1034600037B5FFF7E9FF28B91B4810F069FD0020C8
:1034700003B030BD194BB0F8B2111B686846002488
:10348000CDE90043FFF7ECFCFFF7D6FF0546D8B9BE
:10349000114810F055FD0120FFF7F4FCFFF702FD85
:1034A00001216846FFF773FD03460028DFD05B6803
:1034B0009847F5E705F092F830B1A54204D0B4F989
:1034C000B2014021FFF712FD204605F095F80446B1
:1034D0000028EFD1DFE700BFC75F0100841600209E
:1034E0001FB5074B0293074A009200230193052260
:1034F0004FF480610448FEF7B7FB05B05DF804FBAC
:10350000EC5F010061340000301C00204269013290
:1035100001D00FF060BC83685B6818472DE9F0416B
:10352000DDF81880154600220E461F46014608F1B8
:103530000803104600F077F9044650B1406876BAA7
:103540006DBA8680C58027B142463946083010F0F2
:103550001FFA2046BDE8F08173B506460C46002AE6
:103560003ED0072B3CD99188D088083B40BA49BA55
:10357000009389B202F1080382B28120FFF7CEFFE7
:10358000054668B3237EFF2B04F1080214BF04F143
:103590001801002100F0FDFC044610B90146284640
:1035A00009E000231A461946184605F0FBFE0546B9
:1035B00030B90146204602B0BDE8704006F058BA66
:1035C00043680EB1B6F9B2615E8006492C602B46A5
:1035D00040F20222022004F033FC01460028DED033
:1035E00002B070BD0000FFFFF7B5099D0C46114603
:1035F0001A464FF6FB739D4207464AD800950023B2
:103600008020FFF78BFF002846D022460021466825
:1036100000F0BFFC044620B9214810F091FC0025C1
:103620002EE043689DF82020DA7167B100231A4626
:103630001946184605F0B6FE40B34368B7F9B22103
:103640005A8004600446174B1868FFF75FFF032D8C
:1036500089BFB0600836043D0C3600239D42DAB2C3
:1036600011D11149234640F20222022004F0E8FB66
:103670000028D4D16FF008050021204606F0F8F9A3
:10368000284603B0F0BDF2540133E7E76FF00B05B5
:10369000F2E76FF01505F3E76FF00B05F0E700BFF9
:1036A000FA5F0100AC8001000000FFFF2DE9F04748
:1036B0009846224B0646186817460D46FFF726FF28
:1036C00002218146304606F02FFC03218246304617
:1036D00006F02AFC0446BAF1000F2AD048B3DAF803
:1036E0000400083002F073FA6468032D04F1080C3A
:1036F0001CD9A268043DA9EB02020C3425442146E2
:10370000E043A94202D14FF0FF3109E001310B182B
:1037100011F8014CDBB29C42F3D0A1EB0C01013952
:1037200043463046BC46BDE8F04760476446002249
:10373000E4E76FF01500BDE8F08700BFAC80010042
:10374000F8B5048906460F46154600200DB1AE4275
:1037500018D132897168002309F0A5FA04F13A03FF
:103760000344B3F5803F24BF013080B23968204460
:103770003A3000232022083180B209F094FAC04385
:1037800080B2F8BD23462A89696809F08CFAAB68D3
:103790002D681C44A4B2D9E72DE9F0410D468046BE
:1037A0000321284606F0C0FB044608B9FDF71AFDC0
:1037B000022106F0B9FB06460028F7D0A368032BC8
:1037C00005D828460021BDE8F04106F051B9011D99
:1037D0002A4620466768FFF7B3FF0028F1D13B78FF
:1037E000892B0ED8842B10D8802B15D039782B46F6
:1037F00040F20122032004F023FB0028E1D0BDE8C1
:10380000F0816333DBB2012BF0D8A36871683A46CC
:10381000404602F0D5FBE9E7238971683A46404605
:10382000FFF79AFEE2E738B50D46144600211A4626
:10383000032306F07BFA28B1436800221D705C70F8
:103840009A70DA7038BD10B5044668B190F90C3042
:10385000032B0CD102680431FFF772FF50B162688C
:1038600043BA5380002010BD6FF00D00FBE76FF0EE
:103870004C00F8E76FF00100F5E7002106F0F8B81A
:1038800008B50449102210F053F8B0FA80F040094E
:1038900008BD00BFF862010010B50A4908220446BD
:1038A00010F046F848B12378FF2B08D1607800F07B
:1038B0000F00831E5842584110BD0120FCE7002034
:1038C000FAE700BFE862010038B50B680C46054610
:1038D00008B9FDF787FC6268B0F9B2115180002287
:1038E0004BB9B5F8E230934209D220467A21BDE8BF
:1038F000384006F0BDB899681B680A44F0E72846CE
:1039000004F06CFE60B10B49234640F20222012014
:1039100004F096FA68B92046BDE83840FFF7ADBF1D
:10392000B5F9B20140F20222214604F07EFA0028E5
:10393000F1DD38BD0000FFFF2DE9F8430E46D1E967
:10394000001405460A4600232ABB5BBAA380A3796C
:10395000FF2B02D119BB3B23A371E37913B94DBBF4
:103960004023E37104F108073E49102238460FF066
:10397000DFFF04F11809804678BB4846FFF780FF57
:103980000246D0B110224146384610F003F9012317
:10399000E37534464FE0906812680344D4E70B7B2C
:1039A000023BDBB2022BD6D82F4AD35CA371FF2B8C
:1039B000D3D1D0E795F8B031D3E74946284604F093
:1039C000BAFF0028E5D0034600F1100253F8041BAB
:1039D00047F8041B9342F9D1DBE7284604F026FEA2
:1039E0004846FFF74DFF98B10024284604F025FE15
:1039F000002CCED00321304606F096FA28B1436859
:103A00001B7803F0FD03852BC3D06FF07C0022E010
:103A10003946284604F07BFF0028E5DB2844047D76
:103A200004F01F04103C18BF0124DEE706F09CF9E7
:103A300098B12060044694F90C30022B02D1206822
:103A40000028F3D13146204606F001F8002807DAB5
:103A5000831C08BF0020BDE8F8836FF00B00FAE775
:103A60000020F8E7186301001960010010B50C464A
:103A7000FFF762FF002804DA2046FFF7FEFE002071
:103A800010BD0120FCE7002370B504460D4642F04E
:103A9000400619461A46184605F084FC014620B92E
:103AA0002046BDE87040FFF7E8BE43681E71046021
:103AB0002846BDE87040FFF707BF00002DE9F0433E
:103AC00090F90C30013389B00646884622D144680B
:103AD0000CB9FDF787FBB4F9020004F09CFD054624
:103AE0003046277906F040F907F03F07014618B93C
:103AF0003046FFF7C2FE0AE006F008F8064696F9DF
:103B00000C30022B09D01621304605F0B1FF09B068
:103B1000BDE8F08300273D46F1E770685549102263
:103B200018300FF005FF0028EDD0304606F01CF9E4
:103B300004460028DCD04668337EFF2B2AD1002DB6
:103B400040F0838004F05AFD002840F08E8020462B
:103B5000CFE726463A4629463046FFF794FF2846E7
:103B600004F04AFD05460028D1D0B8F1000FF0D08E
:103B7000204606F0F9F806460028E8D00146284617
:103B8000FFF7DAFE0028E5DAB442E0D03046FFF76E
:103B900074FEDCE71836304604F0BAFF85428146F1
:103BA00006D03046FFF778FE002818BF4FF0000916
:103BB0003046FFF765FE10B9B9F1000F18D0B8F123
:103BC000000F0ED1204605F07DFF0028BFD12A4905
:103BD000234640F20122022004F032F9002896D157
:103BE000B5E721464846FFF741FF00288FD0E9E7B7
:103BF00001AB22462946304603F0B0F8002886DBA8
:103C0000BDF81C00C0F3041004F005FD05460028B3
:103C10003FF45FAFB8F1000F10D1002108469DF8C6
:103C20001E3005AA05F0BEFB014600288FD0436870
:103C30001F7104602846FFF747FE68E72146FFF73B
:103C400015FF00283FF463AFE7E7B8F1000F06D097
:103C500021462846FFF70AFF00283FF458AF3A46AE
:103C600029462046FFF70FFF51E7411E204605F089
:103C7000D1FF74E7186301000000FFFF2DE98048C1
:103C8000102289B00DEB020000210FF083FFA54B3D
:103C9000A54C1B88A548ADF81C3008210594FDF7FC
:103CA00093FD04A9022005F03BFE40F20523ADF888
:103CB0000A3040F2022AA14640F201246846FDF78C
:103CC00076FDBDF80210B1F5017F09D8514500F22B
:103CD0001481A1423CD05145F0D101980121B1E0BD
:103CE000A1F59F43403B9AB2152AE7D8152BE5D89A
:103CF00001A252F823F000BF0B3F00000B3F000071
:103D00000B3F00000B3F0000BD3C00000B3F0000DC
:103D10000B3F00000B3F00000B3F00000B3F00007B
:103D2000BD3C00000B3F00000B3F00000B3F0000BC
:103D30000B3F00000B3F0000BD3C00000B3F0000AC
:103D40000B3F0000BD3C0000133F00001B3F000084
:103D5000019D0DB9FDF746FA4FF0FF31284606F0F8
:103D6000E3F80646A8B14368002BF3D0B3F902008C
:103D700004F051FC80466B683BB1AA68272A04D93D
:103D80001B7803F0F003602B05D02846FFF775FD84
:103D900092E78046EFE7284605F0E6FF0446002854
:103DA000F3D00222282106F001F80023237308B97A
:103DB0002046EBE74768FB790BB9742153E0B988DB
:103DC000BD7949BA89B209B93B2DF1D18442A368C2
:103DD0003BD09942204638D206F056F807F1180B2E
:103DE0005846FFF74DFD002845D15846FFF754FDD2
:103DF00010B1B8F1000F3AD1584604F089FE804660
:103E0000B0FA80F04009002835D007F10800FFF72C
:103E100043FD0028CCD15846FFF73EFD0028C7D10E
:103E2000FB79013BDBB2FB71002BC6D01EB13146E2
:103E3000204605F06BFE204605F081FE00283FF489
:103E40003BAF0021FFF73AFE36E7002283681A44B1
:103E500090F90C30022B02D000680028F6D1283AE5
:103E60008A42BBD21621204605F002FE24E75846BE
:103E700004F04EFEC4E7292D39D03A2D39D0112D4A
:103E80000CBF0423002323732946022005F0C7FD3D
:103E9000002801DC3A2D2ED10121204605F0BAFE82
:103EA000012694F90C00234640F20122494603F012
:103EB000C7FF10B92046FFF7E0FC86B13A2D03D1C9
:103EC0000121204605F0A6FE234640F201222946A4
:103ED000022003F0B5FF10B92046FFF7CEFC3A2DC3
:103EE0007FF4EAAE21464046FFF756FCE4E60223A3
:103EF000C9E70323C7E70026D3E76FF0850302A9CC
:103F000068460393FDF72AFCD6E6019802F05AFDB5
:103F1000D2E6019801F098FFCEE60198002101F069
:103F2000D5FFC9E6801600200000FFFF30200020EA
:103F30001FB50A4CB4F900305BB9094A0948CDE90C
:103F40000132094A00924FF470710422FDF78CFE91
:103F50002080B4F9000004B010BD00BF3024002060
:103F600014600100702000207D3C000008B5022193
:103F700005F0DAFF60B143680BB9FDF733F98268E9
:103F8000272AFAD91A7802F0F002602AF5D11846E9
:103F900008BDF8B50C46174602232822002105F07B
:103FA000C5FE064600B3456805F10800F4B1214698
:103FB000034604F1100251F8040B43F8040B91423C
:103FC000F9D105F11800B7B13A46034607F11001DF
:103FD00052F8040B43F8040B8A42F9D160232B609A
:103FE000FF23AB710023EB713046F8BD1022214650
:103FF0000FF0D0FDE5E7102239460FF0CBFD01238D
:1040000085F82730EAE70000F8B5044615460E4665
:1040100009B90020F8BDD1F8E470FA04F9D51949BE
:1040200008220FF085FC38B12378FF2BF1D163789B
:1040300003F00F03022BECD1FB0704F1080105F19B
:10404000100201D4FDF7CEF896F8B10109F0BCF8E2
:1040500010F0FF00DDD0A8762B4604F1100254F8D2
:10406000041B43F8041B9442F9D1B6F9B2311B0189
:1040700003F4F87343F4806343F006032B830120B9
:10408000C8E700BFE86201002DE9F341064604F0ED
:104090003FFD0446002862D004F0C8FAB4F9B2111A
:1040A000002001F0E9F90546002849D0006800F039
:1040B000FFFD002844D02B68B4F9B211B3F8682092
:1040C000C2F30412914201D0FDF78CF80833184670
:1040D0003246214600F01CFB3146204604F017FC16
:1040E000051EF1DB61190B7D03F01F02102A33D08E
:1040F00003F00702013A012A28D80133D4F8D86026
:104100000B75691C0901174B1748B3F900808F1D07
:104110009C3121440191FEF7F7FF04EB05100023C9
:10412000C0E92B36274444F6CF73A0F8B630C0F868
:10413000B870A0F8B48001990B48FEF7ADFF05E018
:10414000002384F8DF30204602F0F2FB204602B064
:10415000BDE8F04104F071BA4EF66026D1E702B036
:10416000BDE8F08130240020782600202DE9F043BE
:104170000D4687B01E46044608B9FDF733F8D0F85F
:10418000E47017F4805F03D1042007B0BDE8F0832A
:1041900093F801E0BEF1020FF6D192F800C0BCF135
:1041A000880F40F08180FF07EED590F80C2104AB1A
:1041B00000F5827103F0A6FF0828E5D1DDE90423AC
:1041C000F168B0688B4208BF8242DDD1B378012B21
:1041D00045D0022B49D0002B3FD105F118012046D4
:1041E000F78804F094FB051ECEDB7FBABBB2012B2F
:1041F00004EB05021CBF4EF660275F43137D314878
:1042000023F01F0305F1010143F010034FEA0111F0
:10421000137501F106082C4B01F19C01214418BFD4
:10422000A7F56A47B3F90090039114BF603F47F2C6
:104230003057A044FEF768FF04EB05140023C4E9DF
:104240002B3744F6CF7303991E48A4F8B630C4F850
:10425000B880A4F8B490FEF71FFFB07895E705F199
:104260001801204604F0DDFDF7E7B4F9B21105F1BD
:10427000080001F001F9074600283FF47EAF01F085
:10428000C3F8002001F0E2F828B984F8DF002046E6
:1042900002F04EFBE1E73B68002B3FF46EAF05F107
:1042A0001800FFF7F1FED8E7BC077FF56DAFBCF152
:1042B000870F7FF469AF0F9C01940E9C009400F06F
:1042C00087F862E7782600203024002073B5437811
:1042D000032B054603D00024204602B070BD0830F1
:1042E00001F000FB04460028F5D06B88AA885BBA71
:1042F00052BA9BB243EA0243EA8852BA92B242F2FD
:104300001071002A08BF0A464EF66025554302691F
:104310009A4209D30361114B18684369013319D0DC
:104320000EF059FD284460610D4B0E48B3F9006052
:1043300004F118010191FEF7E7FE0023C4E90635F8
:1043400044F6CB7301990748638464622684FEF7C0
:10435000A3FEC1E783685B689847E3E7A480010098
:10436000302400207826002073B514468A784878D7
:10437000402A8CBF03230223984226D1CD88CB78D4
:104380006DBA03F00F06ADB2C3F30013009308310A
:104390002B46304605F04EFE0CB9FCF723FFF143E7
:1043A00004F1290201F00701F408012000FA01F1EB
:1043B000135DC9B23DB923EA01034EF660201355DF
:1043C000684302B070BD0B43F7E74FF0FF30F8E7EA
:1043D0002DE9F74F01F1080A0646884691464749FC
:1043E00010225046DDE90CB51F460FF0A1FA002857
:1043F00000F08180BBF1000F7DD05DB195F86A308F
:10440000DB0707D50822B91805F118000FF090FA5C
:10441000002867D1FC88002C5FD05B464A464146A5
:10442000304600F099FAB6F9B211504600F056FE47
:10443000044600285DD000F1180807F1080508229D
:10444000294640460FF074FA28B1B4F8683003F4F6
:10445000C063002B4BD12B68A3616B68C8F8043094
:10446000FD88274B2748B3F9007004F158010191EA
:104470006DBAFEF749FE0023A365ADB24EF6602388
:104480005D4344F6C973A4F8623001991D48E5659F
:104490006466A4F86070FEF7FFFDB4F8683013F0AE
:1044A00007030ED0062B0CD00EB9FCF79BFE154867
:1044B00004F12801FEF728FE03222146304600F0D1
:1044C00031FAB4F8683023F4C06343F48063A4F88D
:1044D0006830002003B0BDE8F08F65B1284600F0D9
:1044E00057FEF6E7B5F8683003F4C0631BB101204E
:1044F000F0E70220EEE70420ECE700BF18630100BC
:10450000302400207826002073B5069E1C460BB987
:10451000FCF768FE0025CDE90065FFF727FEC31E06
:10452000DBB2012B0AD9E18849BA2B4604F1080213
:1045300089B202B0BDE8704007F040BB284602B027
:1045400070BD4269013201D00EF045BC83685B68E2
:104550001847000070B5044604F0DAFA064608B9B8
:10456000FCF740FE00F06AFD204601F0BBF904466E
:1045700020B900F069FD6FF00B0070BD1A4B186890
:10458000FFF7DFFF194B034463610025284601F064
:10459000A1F80546A8B929340126E8B205F028FD9E
:1045A00040B1EA08EB43A15C03F0070306FA03F30A
:1045B0000B43A3540135102DEFD100F045FD002031
:1045C000DBE795F834305B07E0D52B68B6F9B2210C
:1045D000B3F86830C3F304139A42D7D12946204672
:1045E00001F0D6F9D2E700BFA48001000046C32342
:1045F00007B5019000F022FD019801F091F903B098
:104600005DF804EB00F020BDF8B50468124F0646D3
:104610000D4600F013FD204601F0FAF9044698B16A
:10462000102239460FF084F90028F4D023462A4698
:1046300004F1100153F8040B42F8040B8B42F9D13A
:1046400023692B6163696B6100F0FEFC201E3460FE
:1046500018BF0120F8BD00BF1863010010B58CB071
:1046600001460446282202A808F066FC094B22698C
:104670000190186864690092FFF763FFDDE900218B
:10468000201A4EF66023B0FBF3F303480FF0A4FBAF
:104690000CB010BDA48001001C6001002DE9F041A8
:1046A0001F460B4B144605460E460A48B3F90080D8
:1046B0001146FEF729FD0023C4E900376681E56055
:1046C000A4F8088021460348BDE8F041FEF7E4BCA9
:1046D000302400207826002038B50446154699B1CC
:1046E00090F86C209A4205D01A46023120300FF023
:1046F0001FF958B9B4F86810B5F90000C1F30411F6
:10470000081A18BF012038BD0846FCE70120FAE767
:10471000F0B5074685B015461E460C4609B9FCF7AC
:1047200061FDB1F9B211002000F0A6FE4DB3D4F83E
:10473000E430DA0425D520B30068B4F9B221B0F82A
:104740006830C3F304139A421BD13146083008F095
:1047500088FBB0B1D4F8E430DB0710D594F80C2115
:1047600002AB04F58271204603F0CCFC082806D188
:10477000002302AA0F21184607F020FA10B905B04D
:10478000F0BD0020009033462A462146384603F00B
:104790006DF9F4E770B50446B0F86800C0F3041092
:1047A0000E4603F038FF054608B9FCF71BFD03F081
:1047B0003DFF16B1002384F86B3004F1080318465E
:1047C00000222946FFF7A4FFD5F8D83004F12802CB
:1047D00044F6C0712046FFF761FF284603F02DFF25
:1047E00094F86B30013384F86B3070BD2DE9F043E1
:1047F000B0F8683013F0070585B00446884672D0DB
:104800006A1E012A72D8C3F3041003F004FF44F6B1
:10481000C1710646204601F071F981460EB9FCF7D8
:10482000E1FC304603F002FFD6F8D870B94557D9FD
:10483000B8F1000F02D0002384F86B30012D28D18D
:1048400040F2DC514FF4FA7094F86B800AF092FB5E
:10485000A0F5FA73A8F10208B3F57A7F5FFA88F839
:10486000DDD2B8F1110FDAD805FA08F5A5FB072358
:10487000A2FB008900FB03994FF47A7200234046A3
:1048800049460EF04BFC4EF66023984228BF18466E
:10489000074640F2FF220023CDE900234FF080734A
:1048A0000293FF238DF80C30637D8DF80D30E38A81
:1048B000ADF80E3000226B46314604F10800FFF7D8
:1048C00027FF3B4604F1280244F6C1712046FFF75A
:1048D000E5FE94F86B30122B9CBF013384F86B30EB
:1048E000304603F0AAFE05B0BDE8F083FFF752FFA3
:1048F000F9E7000010B50446D0F8BC0000EB500109
:1049000040080AF037FB04F17802C4F8C000044BF9
:10491000204644F6CE71BDE81040FFF7BFBE00BF91
:1049200000DD6D00B1F8683023F00703134370B564
:104930000446A1F868300D46164603F077FE34B100
:10494000A36F23B1324605F10801032098472046A2
:10495000BDE8704003F071BE2DE9F84390469946DA
:10496000054608B9FCF73EFC01F10807B0F9B211A1
:10497000384600F0B3FB044628B190F86A3013F0D3
:10498000010F08BF0024D5F8E430DA07EAD595F81E
:10499000B101494608F042FC061E25DB002C4BD035
:1049A00094F86C30B34207D1324609F1020104F1A8
:1049B00020000EF0BDFF98B1D5F8E42041F20203CB
:1049C000934303D198F80030852B09D0244804F193
:1049D0002801FEF799FB032221462846FFF7A2FF94
:1049E00094F86A30DB0701D4BDE8F88398F800300A
:1049F000862B1AD1B4F8683043F00803A4F8683065
:104A0000D5F8E42041F20203934303D198F8003033
:104A1000852BE9D084F86C60324609F1020104F17B
:104A20002000BDE8F8430EF0B3BF872BE8D0B4F800
:104A3000683023F00803E1E7B5F9B21103223846E4
:104A400000F0E8FB04460028CED098F80030872B11
:104A5000C6D1B4F8683023F00803A4F86830BFE783
:104A60007826002038B50446B0F8680000F0070347
:104A7000042B12D0062B12D10325C0F3041003F02F
:104A8000CAFD2A462146FFF74DFF052D07D12046D6
:104A90000121BDE83840FFF7A9BE0525EDE738BD87
:104AA00070B505460C460622FFF73CFFD5F8D4301A
:104AB00004F12802204644F6C771BDE87040FFF7B4
:104AC000EDBD00002DE9F047054616461F460C4691
:104AD00009B9FCF787FB0028FBD06BB1D0F8E430B4
:104AE000D907F6D590F8B101394608F097FBB0F137
:104AF000000802DABDE8F0879846B4F8689009F03B
:104B00000709B9F1020F10D096F800A0BAF1880F8A
:104B100002D133799A0608D4434605F5D97239464D
:104B20002046FFF7D9FD00286BD057B384F86C807E
:104B30004246B91C04F120000EF02AFF3378882B7E
:104B400002D133795B061FD4394804F12801FEF7FE
:104B5000DBFA032221462846FFF7E4FE3378882B50
:104B60000CD1327990065ED5B4F86830110654BF86
:104B700023F0080343F00803A4F86830DFF8B4A07A
:104B800018E084F86C70D9E721462846FFF788FFC3
:104B9000E4E7D9F8043040F202225146022003F043
:104BA0004FF920B9D9F80400092104F061FF00236E
:104BB000C9F80430204601F0B7FF81460028E8D14B
:104BC0003378882B96D133795A0693D4B4F8683069
:104BD00003F00703062B8DD1434605F5D9723946FC
:104BE0002046FFF779FD002884D004F12801104801
:104BF000FEF78AFA214628460322BDE8F047FFF770
:104C000091BEBAF1880F7FF475AFB9F1000F3FF490
:104C100071AF33795B067FF56DAF21462846BDE85D
:104C2000F047FFF73DBFB9F1020FA7D19CE700BFE6
:104C3000782600200000FFFF13B5044608460191C6
:104C400002F078F901990122204602B0BDE8104037
:104C5000FFF768BEB0F8682002F00703022B10B51A
:104C600004460BD0052B17D0012B06D1B4F86830C1
:104C700013F4C06F0AD01B0708D410BD90F86B3036
:104C8000022B03D9BDE8104000F082BA2046002173
:104C9000BDE81040FFF7AABD90F86B30022BE5D9B4
:104CA000C2F3041003F0B7FC2146FFF7C5FFDDE7B0
:104CB000B0F8680000F007000138012894BF002018
:104CC0000120704708B5044910220EF031FEB0FAF9
:104CD00080F0400908BD00BF186301002DE9F341D1
:104CE000089E884615461946074630B3B8F1000FAE
:104CF00023D00193FFF7E6FF01990446304B9E4213
:104D00009ABF4FF47A735E434FF0FF36002954D0B8
:104D10000CB1002D51D0019100F090F9019944B3EC
:104D2000284600F041FB054648B96FF00B0400F03F
:104D30008BF9204602B0BDE8F0810124DEE7214B6B
:104D400018600EB90024F2E71F4B011D00241F4814
:104D5000B3F900700191FEF7D7F9C5E9014644F6B1
:104D6000CD73EB812D61AF8101991848FEF794F95D
:104D7000DDE74346802B284628BF80233A4600F0D3
:104D8000FDFB05460028D0D090F8343043F01003E6
:104D900080F83430002ED5D00B4B00F124010B48A5
:104DA000B3F900700191FEF7AFF944F6D073C5E98D
:104DB0000946EB852D63AF85D6E76FF01504B8E79C
:104DC000378941009C2D00203024002078260020C7
:104DD00070B505460E4600F031F92DB126B12846D2
:104DE000FFF770FF044640B100F068FB08B100F027
:104DF0000BFBBDE8704000F027B9204600F06AFCCC
:104E000004460028F5D094F83530B342F5D1294650
:104E1000201D08F03BF8B042EFD3074804F124010D
:104E2000FEF772F994F8343023F0100384F834302C
:104E3000204600F02BFCDCE7782600202DE9F0412D
:104E400006460F469846154602B10BB9FCF7CAF95B
:104E5000106838B92C68204600F03CFC0446F8B9CC
:104E6000286003E000F04AFC0028F3D12C682046BB
:104E700000F0ECFA044670B120680028F7D02FB19A
:104E8000B0F86830C3F304139F42F0D15EBB4146D3
:104E9000204600F03DFB201E2C6018BF012019E0C9
:104EA00094F83430002BD1D020680028D3D0042BC4
:104EB00002D1E38EDB07CED52FB1B0F86830C3F353
:104EC00004139F42C7D13EB92046414600F024FC5E
:104ED0002C600120BDE8F0813146083007F0C1FFA9
:104EE0000028F1D1B7E73146083007F0BAFF0028B3
:104EF000BDD0CCE710B590F820308CB0044613B18B
:104F0000FFF7E0FE00B394F82110154A154B164840
:104F1000002914BF114619460EF05EFF04F110017E
:104F200008460191FFF7CEFE019938B9282202A860
:104F300008F002F801460D480EF04EFF618C0C4857
:104F40000EF04AFF0CB010BD2146282202A807F03F
:104F5000F3FF94F82020014606480EF03DFFDDE700
:104F60003460010094620100366001004860010075
:104F70005060010041600100CB08C943C25C01F0F0
:104F80000701012303FA01F10A4214BF1846002069
:104F9000704730F9081FFCF783BB000008B50449CF
:104FA00010220EF0C5FCB0FA80F0400908BD00BF29
:104FB0001863010008B590F86A1021B970220EF04C
:104FC000E9FD012008BD0020FCE770B5044610464D
:104FD0000E461546FFF7EEFF54B1204605F10803D3
:104FE00004F1100250F8041B43F8041B9042F9D15D
:104FF0001F2E01D9FCF7F6F8B5F8683023F4F873E2
:1050000043EA0611A5F8681070BD0000064A13684F
:105010003BB11868834219BF02681A60002313600D
:1050200070471846704700BF7426002001490248A7
:10503000FEF78AB8934F0000782600200148FCF75D
:105040004FB900BF942600200148FCF74DB900BFBE
:10505000942600202DE9F041154C06460F4604F534
:10506000E0680025B4F86830C3F304139F4211D000
:1050700025B994F86A30002B08BF25467034A04546
:10508000F0D125B12A4639463046FFF79EFF284623
:10509000BDE8F08104F1080136B90846FFF77EFF4C
:1050A0000028E5D02546EDE7304607F0DAFEF7E7C1
:1050B0009C26002028B17030064B984203D3002074
:1050C00070470548F8E790F86A20002AF8D1703058
:1050D000F3E700BF9C2D00209C2600202DE9F04125
:1050E0000E46054608B9FCF77DF8114C002794F8E8
:1050F0006A30A0464BB90137102F04F17004F6D185
:105100004FF000084046BDE8F081B4F8683013F471
:10511000F87FC3F3041202D00EB19642EBD12946B8
:1051200004F1080007F09DFE0028E4D0EAE700BF84
:105130009C26002073B50446B0F86800C0F3041044
:1051400003F069FAB4F86830D0F8D4600E4823F060
:10515000070343F00603A4F868300C4B04F1280160
:10516000B3F900500191FDF7CFFF002301990648E4
:105170006463C4E90A3644F6C7736386258602B0C1
:10518000BDE87040FDF788BF78260020302400205D
:1051900010B590F86A3023F0010380F86A300446B5
:1051A00000F138011948FDF7AFFF184804F1280154
:1051B000FDF7AAFF154804F14801FDF7A5FF04F12A
:1051C00058011248FDF7A0FF204601F0B3FE104A37
:1051D000116821B10B689C4206D1FFF717FF2046EA
:1051E000BDE81040FFF7E6BE0B461B681868844216
:1051F00002D09942F9D1F2E7002BF0D02168196072
:1052000011688C4208BF1360E9E700BF78260020D0
:10521000742600202DE9F84F8846074608B9FBF7A9
:10522000E1FF02F007052B1F022BF8D9FFF712FF51
:10523000044600284CD1FFF7E9FE0646002864D05A
:10524000DFF8CCA08346D1469BF86A4034F00104D5
:105250002DD1BBF8683003F4C06383B95846FFF71B
:1052600097FF5A4641463846FFF7AFFEBBF8683015
:105270002B43ABF8683001238BF86A305C46DAF8D0
:105280000030B3B11B68CBF80030DAF80030C3F857
:1052900000B0C9F800B0C4B9FFF7B8FE8642834633
:1052A000D2D1D9F800303BB9CBF800B00BE00024E4
:1052B000E5E7CBF800B0ECE71B68CBF80030D9F895
:1052C0000030C3F800B0C9F800B02046BDE8F88F40
:1052D00090F86A30DA070AD4B0F8682022F00702A2
:1052E0002A4343F00103A0F8682080F86A3023685D
:1052F000002BEAD1064B1A682AB1126822601A689C
:1053000014601C60E1E72460FBE70446DDE700BFB2
:1053100074260020F8B50C46054600B109B9FBF724
:1053200061FF0A4600F1080300F1180153F8040B6D
:1053300042F8040B8B42F9D1B5F8687019492783FC
:10534000082220460EF0F4FA04F1100638B1237852
:10535000FF2B1DD1637803F00F03022B18D1C7F385
:10536000041003F058F90028D9D0D0F8E430D9045B
:105370000ED59A070CD4DB0705F11001CFD590F8B4
:10538000B101324607F020FF002801DBA076F8BD0E
:1053900095F86C20A27605F120013046BDE8F84072
:1053A0000EF0F6BAE8620100F8B5164C256807461B
:1053B0000E46ADB1B5F86830C3F30413994201D07D
:1053C0000020F8BD05F1080107F04BFD0028F7D0DB
:1053D00095F86A3043F0080385F86A302046F0E714
:1053E000FFF738FE024620600028E9D031463846F3
:1053F000FFF7EBFD226892F86A3043F0080382F869
:105400006A30EBE760240020036810B504468BB1D6
:10541000011D0C48FDF778FE206890F86A3023F0F3
:10542000080380F86A30FFF7C5FD142200212046EA
:105430000EF0B0FB044B1A68A24204BF00221A60AF
:1054400010BD00BF782600209C2D002028B114300C
:10545000074A904203D3002070470648F8E70368E4
:105460001BB193F86A30002BF6D11430F1E700BF7E
:10547000742400206024002010B520B10E4B1C685D
:105480002CB9002010E00029F8D1FBF7ABFE29B1C0
:10549000B4F86830C3F304139942F2D128B994F8F0
:1054A0006A301B07F1D5044810BD04F1080107F06C
:1054B000D8FC0028E5D0F2E76024002010B5134C9A
:1054C0002168B9B10B68B3F8683003F00703013BFA
:1054D000012B0DD80020FFF7B9FF68B90846FFF788
:1054E000B5FF01B110B90020FFF7B0FF2060014601
:1054F000084610BD0846EEE70368B3F8683003F0CD
:105500000703013B012BF1D8E5E700BF9C2D0020EC
:1055100038B50C46054610B1036803B109B9FBF76D
:1055200061FE1022002120460EF034FB124A126860
:105530000023AA4284F8203009D12B68B3F86830E0
:1055400003F00703013B012B94BF0023012384F8E0
:1055500021302B6804F1100103F10802183352F8CE
:10556000040B41F8040B9A42F9D12B68B3F8683068
:10557000C3F30413638438BD9C2D00202DE9F84F3C
:10558000054689461F46904632B11046FFF706FD94
:1055900010B97B1E7F2B01D9FBF724FEDFF8E8B0A2
:1055A000044682469BF83420EAB9002C08BF5C46CA
:1055B0000AF1010ABAF1080F0BF1400BF2D1002CED
:1055C00046D02368002B49D149462846FFF742FDC3
:1055D00006462060002841D10146402220460EF0B8
:1055E000D9FA344634E09BF835209742E0D158464A
:1055F000414650F8046B07F049FC8742D8D8002E8A
:10560000CAD0B6F86820C2F304129145D0D108364A
:105610003046FFF7C3FCF0B9002DC9D0314628460B
:1056200007F01FFC0028C3D005F1100255F8041B39
:1056300046F8041B9542F9D1134B4FEA8A1A5C468F
:1056400053F80A1091F86A2042F0400281F86A206B
:105650002046BDE8F88F002DEED0E5E722684946E8
:105660002846FFF7B2FC2046FFB250F8042B92F810
:105670006A3043F0400382F86A3041463A4607F008
:1056800025FC84F83570E3E77424002010B590F809
:1056900034300446DBB9006890B10D4B08229C42BF
:1056A00002D0196888420BD0013A03F14003F6D1C9
:1056B00090F86A3023F0400380F86A30FFF77AFCF4
:1056C00020464022BDE8104000210EF063BA10BD14
:1056D0007424002028B14030064B984203D30020A8
:1056E00070470548F8E790F83420002AF8D1403098
:1056F000F3E700BF7426002074240020054B984275
:1057000006D303F5007398422CBF00200120704798
:10571000002070477424002038B5034610B1026899
:1057200002B109B9FBF75EFD021D03F1140408463E
:1057300052F8045B40F8045BA242F9D193F835209B
:1057400081F82020002481F821401A68B2F868000E
:10575000C0F30410488493F83430042B01F1100096
:1057600005D121461022BDE838400EF013BA02F1EF
:1057700008030146183253F8040B41F8040B934216
:10578000F9D138BD2DE9F04788461646074600B1E5
:105790000AB9FBF727FD1F4D0024A14605F5007A45
:1057A00095F834305BB13946281D07F06FFB48454A
:1057B00005D995F8353083429CBF81462C4640354B
:1057C0005545EDD134B194F83430042B1CD1E38E1F
:1057D000DB0719D4FFF772FE88B9ACB9204602F096
:1057E0000BFF044618B96FF07100BDE8F087A36F96
:1057F000002BF3D04246394601209847EEE7314668
:10580000FFF786FE0020F0E731462046FFF784FFD1
:10581000F8E700BF7424002038B5044600F11401F5
:105820001248FDF771FC94F8343023F0040320464D
:1058300084F83430FFF72AFF0D48241AB4F5007FAE
:105840004FEAA41511D20B4C294604F12800FFF7AA
:1058500093FB50B1ED4305F007050121A94094F8F1
:10586000285025EA010584F8285038BD7826002004
:1058700074240020342400202DE9F341044600F173
:1058800014011748FDF740FC2368B3F86800C0F323
:10589000041002F0C0FE0546E0B100F11606211D1D
:1058A000304694F83580019107F0F0FA05F12607AB
:1058B0008045019998BF94F83580384688BF002606
:1058C00007F0E4FA804501D926B137463946284623
:1058D00003F0A7FA204602B0BDE8F041FFF79CBFF5
:1058E0007826002038B5044608B9FBF77BFC0B4945
:1058F00007F0B7FA78B90948FFF750FB60B12346C3
:10590000064C03F1100518685968224603C2083393
:10591000AB421446F7D1014838BD00BF3424002003
:1059200070B550B3164907F09CFA40B3154E164DAA
:10593000002421463046FFF71FFBC8B90134082C6C
:10594000F7D10024114E254621463046FFF714FBBF
:1059500048B90134102CF7D1BDE8704008482C221A
:1059600000210EF017B9E0B204F042FB0574F0E735
:1059700005EB8410FFF750FFE0E7FBF733FC70BD49
:10598000342400205C240020742400205D240020A6
:1059900008B520B119B191F834305B0701D4FBF799
:1059A00021FC094BC91AB1F5007F4FEAA11309D2B6
:1059B000DB4303F007020123934090F828201343B0
:1059C00080F8283008BD00BF7424002070B539B1BC
:1059D0000E4BCB1AB3F5007F02D30024204670BDD6
:1059E0000A4E00F128050846FFF774FE0446002819
:1059F000F3D094F834305B0706D5A11B89112846F3
:105A0000FFF7BAFA0028E9D12146ECE77424002018
:105A100038B538B100F12C04074DAC4204D3002452
:105A2000204638BD054CF7E72046FFF7B7FA0028B7
:105A3000F6D02C34F1E700BF60240020342400208D
:105A40002DE9F3411F4613460A4601460020089EF1
:105A5000FFF794FD054600283ED090F83430B74259
:105A600043F0040380F8343001D2FBF7BBFB07EAB4
:105A70000604601C38D01E4B1868436901332FD0D0
:105A80000DF0A9F9711C04461DD01A4B1A48B3F940
:105A9000008005F114010191FDF736FB0023C5E9F3
:105AA000053644F6CC7301991348EB832D62A5F8B3
:105AB0001C80FDF7F1FAB21C05D03319013301D176
:105AC00004B101362644FB1C10D83B19013308BF32
:105AD00001373C44C5E90E46284602B0BDE8F081D6
:105AE00083685B689847CDE72646F3E73C46F1E7D5
:105AF000A4800100302400207826002010B50A4B35
:105B00009B690246002013B94FF0FF3010BD5C685E
:105B100020445C898C4204D1002AF7D0DC6894428E
:105B2000F4D01B68EFE700BF78260020F8B50F46D9
:105B300016461D46044608B9FBF754FB082BFBD854
:105B40004B1E1F2BF8D8FFF779FA20460022394662
:105B5000FFF760FB044620B9FFF776FA6FF00B0001
:105B6000F8BD2EB125B12A46314620300DF010FF88
:105B7000B4F8683084F86C5023F4C06323F0070352
:105B800043F4C063A4F86830FFF75EFA0020E7E74B
:105B900070B505460E46FFF751FA00242046FFF780
:105BA00089FA044678B1B4F86830C3F304139E420E
:105BB000F4D104F10801284607F053F90028EDD08C
:105BC0002046FFF7E5FABDE87040FFF73DBA38B56B
:105BD0000546FFF733FA00242046FFF76BFA044628
:105BE00088B194F86A30DA07F6D504F1080128463E
:105BF00007F037F90028EFD0B4F868305B0702D01F
:105C00002046FFF797FABDE83840FFF71DBAF8B510
:105C10000C6806460D461746FFF710FA2046FFF7B8
:105C200049FA044640B194F86A30DB07F6D55EB90C
:105C300039462046FFF76EFB2C60FFF705FA28680F
:105C4000003818BF0120F8BDB4F86830C3F304135E
:105C50009E42E3D1ECE7000010B58AB0014604464D
:105C60002822684607F068F9014619480EF0B4F892
:105C7000238B13F4F87FC3F3041102D015480EF000
:105C8000ABF8A17E6A4604F1100007F0FFFA014666
:105C900011480EF0A1F8238B1B0702D50F480EF018
:105CA0009BF8238B0E4A0F4803F0070352F823108A
:105CB0000EF092F8238B0C4A0A48C3F3412352F8A2
:105CC00023100EF089F809480EF03AF90AB010BD19
:105CD000FE73010059600100626001006D60010007
:105CE000CC6001003E750100BC60010094620100BF
:105CF000D0F8E42041F2020393430CBF01200020BE
:105D0000704708B5D0F8E43013F4007304D0FFF7FF
:105D1000EFFF00F0010008BD1846FAE708B501469C
:105D2000FFF7EFFF30B9D1F8E400430704D5C0F323
:105D3000003008BD0020FCE70120FAE710B50A4951
:105D4000082204460DF0F4FD48B12378FF2B08D15A
:105D5000607800F00F00831E5842584110BD0120AA
:105D6000FCE70020FAE700BFE862010008B504493B
:105D700010220DF0DDFDB0FA80F0400908BD00BF33
:105D800018630100002103F073BE08B5FFF7A6F900
:105D900028B190F86A3013F0010F08BF002008BD49
:105DA000044B18684369013301D00DF014B88368BF
:105DB0005B681847A480010038B505685DB195F8A7
:105DC0006A301B0707D5FFF71FFB00242046FFF7AB
:105DD00081FC044600B938BD23689D42F6D1FFF727
:105DE00055FCF3E72DE9F0411F460B4B14460546E1
:105DF0000E460A48B3F900801146FDF785F90023E5
:105E0000C4E900376681E560A4F8088021460348AC
:105E1000BDE8F041FDF740B930240020782600208D
:105E200038B5084DFFF70AF9A96929B10C68284669
:105E3000FDF76AF92146F8E7FFF7F8F8BDE83840C2
:105E4000FFF702B97826002038B5044608B9FBF7F9
:105E5000C9F902F0EBFB47F23053C4F8D03004F13B
:105E600014000025FEF746FD154984F8DF5084F83C
:105E7000E050204602F063FE1249204602F05FFE29
:105E800020461149402201F099FB2046FFF746FFCA
:105E900088B14FF47A71284609F06CF804F19C023D
:105EA000034644F6C3712046FFF79CFF2046BDE839
:105EB000384002F0C2BB204601F0CAFAF6E700BF44
:105EC000D8620100C8620100E862010037B50D46E2
:105ED000044608B9FBF786F902F0A8FB1F4804F155
:105EE0008C01FDF711F92046FFF718FF40B31B485E
:105EF00004F19C01FDF708F904F11601084601912F
:105F0000FFF71CFF019910B1204602F08AFF04F14F
:105F1000260108460191FFF711FF019910B12046B3
:105F200002F07FFF20460E4902F01CFF20460D497B
:105F300002F018FF204603B0BDE8304002F07DBB00
:105F4000064804F17C01FDF7DFF8002DD4D0FD23D5
:105F500084F8DE30204601F07BFACDE77826002079
:105F6000C8620100D862010010B5044608B9FBF709
:105F700039F902F05BFB4FF47A73C4F8D83094F827
:105F8000E13043F0010384F8E1304FF4E163A4F819
:105F9000DC304FF0FF33C4F8CC30002384F8DE301F
:105FA000D4F8E43043F4007343F002032046C4F80D
:105FB000E43002F0C6F82046BDE8104002F03DBBD8
:105FC0002DE9F04F2DED028B8B4689B09246994614
:105FD000044608B9FBF706F902F028FBFFF72EF894
:105FE0009AF80020853A032A00F29380DFE812F045
:105FF00004009B009302A803D4F8E420900740F12A
:1060000088809BF80720FF2A40F083809AF80120BF
:10601000002A7ED1B9F1070F7BD9A9F108080AF14E
:1060200008073E4645460BF108033DBB0BF1080649
:106030003046FFF79BFE40B9B8F1000F33D1B4F9F9
:10604000B2113046FFF7A1FE0546D4F8E43013F450
:10605000805055D14FF4FA7108F08CFF44F6C671A8
:1060600006462046FFF74AFD864252D875B33346AE
:1060700005F1480244F6C57128463EE0A94548D3DB
:106080007178002945D03278012A07D1184603914A
:106090000293FFF76BFEDDE90231D0BBA5EBC10532
:1060A00006EBC106C1E73B78012B09D1D4F8E430F7
:1060B000D90405D43B46524659462046FEF74CFCCF
:1060C0007B78A8EBC30807EBC307B5E7FFF768FECB
:1060D000D4F8CC30BF4A934203D940F6B73290424D
:1060E00003D9A0F6B830834201D206F6B83633465B
:1060F00004F17C0244F6C6712046FFF773FE08E007
:1061000003F00603062B04D100223146204601F09D
:1061100055F9FEF799FF204602F08FFA09B0BDEC61
:10612000028BBDE8F08F0BF10803184608EE103A19
:10613000FFF704FE0028ECD09BF80720FF2AE8D1E7
:106140009AF80120002AE4D1B9F10F0FE1D9D4F86F
:10615000E420D20407D4BAF8062052BA92B242F22E
:1061600028318A42D5D8A9F110030AF1100503930A
:106170002A4619460027002940F0AA80002F00F087
:10618000BA803846FEF7A2F80028C2D0FE8876BA58
:10619000B3B242F21072002B08BF13464EF66026CF
:1061A0005E4307462046FFF7ACFDB4F9B211002864
:1061B00040F0A480BAF806801FFA88F3002B00F0A4
:1061C0009D8018EE100AFFF7EFF802900028A0D08B
:1061D00098FA98F84FF47A731FFA88F803FB08F8D6
:1061E00002464346043244F6CD71FFF7FBFD4645B7
:1061F00028BF46469AF804300BB184F8B031DAF87B
:1062000008309BB193FA83F8D4F8D03098450DD07C
:106210002046714B04F18C0244F6CE71FFF7E2FD8B
:10622000C4F8D08004F11400FEF764FBDAF80C30F7
:1062300013B11BBAC4F8D830029BBBB1D4F8E43018
:10624000DB0413D52046FFF75CFD78B9237D13F0FE
:10625000EF0F03D004F11600FDF716FF637D13F076
:10626000EF0F03D004F12600FDF70EFF039B002B78
:1062700051D1029B002B3FF44CAFFCF70DFE9AF975
:1062800005209AF80530002A80F23D810120FCF7B4
:10629000F9FD2046FFF735FD20B9504804F19C0177
:1062A000FCF732FFD4F8E430D9047FF532AF204652
:1062B000FFF727FD00287FF42CAF204601F02CF9D2
:1062C000B30803EB430304F19C0244F6C37113E7E4
:1062D0008945FFF41EAF507800283FF41AAF1678B6
:1062E000232E03D1002F7FF414AF1746A1EBC0017A
:1062F00002EBC0023FE74FF0FF3653E718EE100AFB
:10630000FFF7BAF8029000283FF474AFFFF754FD8E
:10631000002302936EE72B78052B20D00BD8012B9E
:1063200016D0032B4CD06B78039AA2EBC3020392D6
:1063300005EBC3059AE7182B20D0222BF3D13A4660
:1063400029465046FEF710F8864228BF0646EAE77F
:106350002B46524659462046FEF7FEFAE3E76B7895
:10636000012BE0D19AF80030862BDCD16B681BBA88
:10637000B3F5A06FD7D3A4F8E230D4E7D5F80490F2
:1063800005F10808404699FA89F9FFF7D7FC00287B
:10639000C9D1A978B9F1000F03D14046FEF718FD25
:1063A000C1E7B9F1FF3F08BF4FF00009CDF80090F9
:1063B000B4F9B23118EE102A4046FEF78FFCB2E76E
:1063C0006B78042B0CD04FF0FF339E4228BF1E4643
:1063D000A9E700BF47F4FFFF00DD6D00782600202D
:1063E0009AF80030862BEED105F110094846FFF7E8
:1063F000A5FC0028E7D16B68D5F808801BBA98FA8D
:1064000088F84345DFD3D4F8E400EA78C00401D526
:106410001106D8D4520606D5AA78049349462046D8
:1064200001F0CCF8049BEA7812F0C00F08D12046A6
:106430000493FFF75DFC0028C5D0049B002FC2D059
:10644000AA7804926868E0B9804613E098F834307E
:1064500058070FD598F83530049A93420AD1494627
:1064600008F1040006F012FD049B834202D8404666
:10647000FFF702FA4046FFF72DF980460028E5D1E4
:10648000A1E7591C07D0AB4A93429ABF4FF47A72E6
:1064900053436FF00103B8F1FF3F08D0A54A904580
:1064A0009ABF4FF47A7202FB08F86FF00108CDF83A
:1064B00000804946049AB4F9B2010593FFF7C0FA87
:1064C000814600283FF47FAF059B2FB10146384637
:1064D0000493FFF75DFA049B95F90320E978002AFD
:1064E000BEBFB9F8362042F00102A9F836204A06AC
:1064F00042BFB9F8362042F00202A9F836204345DF
:1065000028BF434661E75D067FF5C3AE01283FF42F
:10651000C0AE0220BBE69BF80720FF2A7FF4F9AD4E
:106520009AF80120002A7FF4F4ADB9F1170F7FF635
:10653000F0AD9AF80820FF2A3FF4EBAD0BF1080804
:106540004046FFF713FC40B17B490D220BF11800C8
:106550000DF0EEF900287FF4DCAD0AF108063146B3
:10656000204602F0D4F9031E0393FFF6D2ADA9F141
:1065700018030AF11807029339461A46D2B9304671
:1065800002F0C6FA054690B302F050F831462846AC
:1065900002F0BDF9B0F1000926DB05EB09031B7D14
:1065A0005A0721D04046FFF7E1FB78B9284602F0B0
:1065B00044F8AEE59145FFF4ACAD487800283FF4CF
:1065C000A8ADA2EBC00201EBC001D7E705EB0911B2
:1065D000AC315A48FCF798FD284602F02EF83146B7
:1065E000284601F039F894E5284602F026F840469E
:1065F000FFF7BCFB38B100230093424621463046EA
:1066000001F090FA85E5D4F8E430DB0705D4B4F95D
:10661000B21103224046FEF7FDFD4FF000094D4642
:106620000CE03B78012B2CD0212B08BFB9467B789E
:10663000029AA2EBC302029207EBC307029B002B54
:10664000EFD1B9F1000F29D055B100954B46524614
:1066500059462046FDF758FF054600283FF459AD3E
:10666000039B234499461B7D9F065AD5B4F9B2116A
:106670003046FFF78AFB0746D0B92846FFF782FB72
:1066800047E52046FFF734FB30B93B4652465946B2
:106690002046FEF761F9CAE73D46C8E7002DDFD086
:1066A0002B46524659462046FEF756F94D46D7E747
:1066B000D4F8E43013F0020F9BF818300CBF4FF001
:1066C00040094FF0C009FF2B28D194F80CA104F524
:1066D0008271524606A80DF05BF9BAF1000F19D08D
:1066E0002A46514606A801F06BF90028C5D0054698
:1066F00030462A46494601F0E5F806460028BCD057
:1067000042460021FDF745FC8046002840F0CF803E
:106710003046B3E749F020092846E8E749F0200968
:10672000E6E79BF818300095A3F1FF056B426B413B
:1067300063E700BF37894100086301007826002025
:106740009BF80770FF2F7FF4E4AC9AF80120002A31
:106750007FF4DFACB9F1170F7FF6DBAC9AF80820B5
:10676000FF2A3FF4D6AC9BF81820FF2A04D19AF8F0
:10677000042050063FF5CDACA9F118080AF118061F
:1067800031464246F2B90AF10809484602F0C0F91A
:10679000054630B301F04AFF4946284602F0B7F8F3
:1067A00000281BDB2B181B7D590717D005EB0010A9
:1067B00000F1AC014548FCF7A7FC284601F03DFF7D
:1067C00049460DE79145FFF4A4AC487800283FF412
:1067D000A0ACA2EBC00201EBC001D3E7284601F058
:1067E0002CFFB4F9B2114846FFF7CFFA054600284E
:1067F0003FF48FAC4FF0000909E03378022B31D021
:10680000212B38D07378A8EBC30806EBC306B8F188
:10681000000FF2D1B9F1000F0DD19AF804305A06E9
:1068200009D5B5F8683003F00703022B03D02946D9
:106830002046FEF735F9D4F8E43013F0010304D113
:10684000524629462046FEF73DF9FF2F7FF461AC02
:10685000D4F8E430DB047FF55CAC0BF1180000F0F9
:1068600071FF56E43346524629462046FEF72AF980
:106870004FF00109C6E7CDE9006533465246594657
:106880002046FDF773FC0746BCE76B68B4F9B221FC
:106890005A804FF47A71C5F80080002008F06AFB36
:1068A00007F13802034644F6C271FFF7E5BBD8F89A
:1068B0000430FF22DA7100231A461946184602F006
:1068C00071FD05460028E0D14046D7E67826002035
:1068D00037B50D46044601F0A9FE45B1204600F04B
:1068E0001BFE204603B0BDE8304001F0A6BE4FF4C9
:1068F0007A71284608F03EFBFD2284F8DE20D4F8A9
:10690000E420019022F00402C4F8E420204600F0C4
:106910009FFD2046FFF7F5F9019B0028E1D104F126
:106920009C0244F6C3712046FFF75CFAD9E70000E9
:1069300038B5044601F07AFE2046FFF7EFF9B0B310
:1069400044F6C3712046FFF7D9F8D4F8E430DA04EE
:1069500032D594F8DF30022B42F210750AD9033B8E
:106960004FF47A6202FA03F31D444EF660239D420F
:1069700028BF1D46A8421AD91149204601F062F9E4
:1069800094F8DF30092B9CBF013384F8DF3094F892
:10699000DF30022B03D9D4F8E430DB0407D52B46D3
:1069A00004F19C0244F6C3712046FFF71BFA20460F
:1069B000BDE8384001F041BE4FF47A65DAE700BF28
:1069C000D862010073B50D460446FEF737FBA5F506
:1069D0009F41403912290ED8DFE801F00A0A1A282F
:1069E0000D2C301212430D474B91169534999D0092
:1069F0002046FEF72FF902B0BDE87040FEF724BB39
:106A00002046FEF72FF8F6E72046FDF773FFF2E782
:106A10004349234640F20222022001F011FA0028E5
:106A2000E9D10921204603F023F8E4E72046FFF7E7
:106A30007FFFE0E7204600F0EDFCDCE7204600F0B9
:106A400007FDD8E7374804F12401FCF75DFB94F813
:106A5000343023F0100384F834302046FEF716FE5D
:106A6000C9E72046FEF794FBC5E72046FEF758FF2E
:106A7000C1E72368B3F86800C0F3041001F0CBFD50
:106A800005460028B7D0FFF78BF90646284601F0E7
:106A9000CDFDA36B9E4206D32046FEF7EDFE2846B1
:106AA00001F0CBFDA7E7E36B9E42F8D3211D05F172
:106AB0001600019106F0EAF994F835300199834205
:106AC0009FBF2B7D23F01F0343F008032B7505F1B7
:106AD000260006F0DBF994F8353083429FBF6B7DCA
